:20000000004000202D34010001C9011001C9011001C9011001C9011001C9011001C90110FC
:1C00200001C9011001C9011001C9011001C9011001C9011001C901103FC9011089
:20003C0080B54FF4FC720FF278011A480EF00EF8012119484174002202210270C17601BDFA
:20005C002DE9F0410FF2502214493820136854689568D6681769D2F814C0D2F818E0D2F8F9
:20007C001C800B604C608D60CE600F61C1F814C0C1F818E0C1F81C8020322031401EE5D1DC
:20009C0050689368D46812680A6048608B60CC60BDE8F081480400215903002100C00021D1
:2000BC00410500217D0500212D06002170B51D46004C204787B2000010B5014800470000FD
:2000DC00D509000070B5614C6148254650358047022809D14034E1885E4A914204D1E97C5E
:2000FC00890601D4911DE18070BD70B557495A4A084650300378002B10D08379012B0DD181
:20011C00037C5B09DB0709D0097D544DC1746C7F20202043687790476C7770BDFF21C17420
:20013C00904770BD10B54E48484C804702280ED121464031CA88474B9A4208D1CA7C5209CE
:20015C00D20704D0227D920601D49A1DCA8010BD70B53E4843494030C07C4009C00707D032
:20017C003E4D41482C8B2043288388472C8370BD884770BD10B53B48344CAC388047214609
:20019C0053310A789309DB0705D04034A2730A7803231A430A7010BD2C4940310871182876
:2001BC0012D004DC0A280BD00B2804D10AE025280CD02A280CD02D4980004018C0687047DE
:2001DC002B4870472B4870472B4870472B4870472B48704770B504461C484E252D5CAE09AB
:2001FC00F60716D0067D3007000F052803D00120054202D00DE00220FAE7E80905D07006D1
:20021C0003D54868800F012803D05B085B0052085200062B03D01020022B11D011E0FB20F7
:20023C00024002232046FFF741FF002807DAC100611A2039497E1422114200D1002070BD93
:20025C00024303432046FFF731FF70BD4401002137CB000004140000EBC80000A800002142
:20027C00F5B4000053AD00002020000080DF00001D050021F9040021CD040021930400210F
:20029C006D04002110B5034CFFF716FF20680028FAD110BD0011044068610000F825F965B0
:2002BC00F9754500450045002600260057A3520052004C00401F401F401F3F000000000053
:2002DC00304000400140034007400F404F40CF40CF41CF43CF47CF4FCF3FCF2FCF1FCF0F6C
:2002FC00000000000000000000000F00080000003F00000040003F000000040068000E0093
:20031C00DC00060043001A00050000000000020000000000000000000400C00000000400B3
:20033C00C000000007000000000000000000000000000000000000003040004001400340A6
:20035C0007400F404F40CF40CF7FCF6FCF5FCF4FCF3FCF2FCF1FCF0F00000000000000009D
:20037C0050C00091007070C00091007082312100319110B10070018101B100A1823132910D
:20039C0010B101911110418141227740F106007051C0019130181039833108D01831416FD1
:2003BC003100319110B18314141683680070251050C00091F4C340C12014036F3110410497
:2003DC005082F0229840512622C082312100319110B163393110410482C08231210031919B
:2003FC0010B163393110A2C082312100319110B150101531051405920070676452C03110A6
:20041C0031066131C1026A6412C13110213971065131E1026A64007051C0019101CCE2C0CC
:20043C006A64676411C1C2C06A6450B054B0007140804022D6440022C94060B08180111EC9
:20045C00C944007054A064B0F0800022C9404012B09032B070C1DF6811C122C16A6470C1C0
:20047C00E46851C00191E2C0823160820200329110B130C2EE68538253395339B16460C347
:20049C00F4688012B09032B00070676401C122C16A6401C1C2C06A645382B164C012B09074
:2004BC0032B00070676472C281C06A6422C111C16A6402C011C16A6462C031C36A6462C3D2
:2004DC0011C16A6402C311C16A6453825339B164E2C36F6411221C4142C281C86A6452C24E
:2004FC0011C16A6472C2E1CE6A6402C281C86A6402C201C86A64B0C030690070676442C211
:20051C0001C86A6452C211C06A6472C2E1C06A6402C001C16A6462C001C36A6422C101C127
:20053C006A6462C301C16A6402C301C16A645382B16400708180111E5C4150B054B000712B
:20055C00408040225D4154A064B0F1800122514500700022514160B04E61000000000000AA
:20057C000000000000000000067305720B720E7250B00071818060B050A09280F0EFF1928C
:20059C0002936A6741228C458080F1C11004301601110114016CB561B661B761B861B9618D
:2005BC00BA61BB61BD61BF61C161C36126632D63F0C002043231412A121432160111211412
:2005DC00016CDA61C561E061C761CB61B561B561B561F461C561FA61C761CB61B561B56104
:2005FC00B561F461C561FA61C761CB61B561B561B561E761C561ED61C761CB61B561B56121
:20061C00B561CF61CF61CF61CF61CF61CF61C064CF61F964CF610665CF613265CF6174676A
:20063C00CF611166CF61C0644E65F964CF61066511663265CF618280E0DFF2926A67B0B044
:20065C00D661B1B00673057230B06C61D0CF6A6784C203C0C0C37C64207851788278E378B7
:20067C001579B6780062C0CF6A6784C203C0C0C37C64307861789278F3781579C678006250
:20069C00B0CF6A6784C203C0C0C37C6440787178A27803791579D678109221923292439281
:2006BC005492659256911FC0FF914039F00601101031101400927067CF61E3B054A0F08076
:2006DC0050221A4640800022BE461262E3A000C86091598150B0918041228E46A0CF6A6734
:2006FC0012828231823942398B641282F2062F101F312F141682D622334640C1346200C5AF
:20071C0020140D6F6D39DE10F4C34E0482C082312E006D39A2C082312D001A828A39FA0606
:20073C002082803180390BC00B18BC10AC18038239149B141082F0060110103110145181C2
:20075C0010140C14C622C94631D0C1266462021011C0013010C00118021882312100C126C2
:20077C00919103B013B063B053B041800122BE46B481C491D581B51C774E95186591F0803E
:20079C00102269428C623D9110B13E9110B1E08000228146E6228142E0B0951865910F926B
:2007BC005981F914F0805022114210228C464D6390CF6A6763B052A03082F2C0200402107E
:2007DC0011C0013010C00118021882312100C1269191919113B003B063B053B064B054B055
:2007FC00007141800122BE4663B064B0F08050221142B181C191D1819118619131B0A462D0
:20081C002967E0A059810582591480C0007163B0BA6A6962E3A0018262818231823D80EF61
:20083C00F19202936A6703A0007037824739873930828039F006021011C0013010C0011849
:20085C00021882312100C126819102B012B030824039F006021011C0013010C001180218E9
:20087C0082312100C126919103B013B063B053B0007153A062B052B041800122BE46A4816E
:20089C00C491D581B51CFE4E95186591F0801022F0428C62B481C491D4814518751C084FEB
:2008BC00F0801022F0428C623D9110B13E9110B1E08000221247E6221243E0B065910F92DC
:2008DC005981F914F0805022114210228C4630632967E0A0598105825914F0C0007162B038
:2008FC00226BF062A2808B64CF6112824239F2068B6050B00071CF6170CF6A674082418096
:20091C000122BE46A481C491D58195186591F18011228C46336B41800122BE46A481C491AB
:20093C00D581C51C1C4B95186591F08010223F438C6260CF6A67408241800122BE46B48169
:20095C00C491D58195186591F18011228C46506B41800122BE46B481C491D581C51CB44A55
:20097C0095186591F08010225C438C62E092D08200226B47C0B20070A080F022874330B033
:20099C0002C1623101C0A080001E8043F022814380F86031603981632010101A136F236E5A
:2009BC0011161216826B00702DE9F84FDFF81885DFF8181588F80000002008600921DFF891
:2009DC00100501700D2141804FF408718180DFF80405DFF8041501608A7EDFF80005027042
:2009FC00FF2ACB7E437008BFFF2B0D7F85704E7FC6708F7F0771C97F417115D1FF2D08BFE8
:200A1C00FF2E11D1FF2F08BFFF290DD1DFF8D0140A7802704A7842708A788270CA78C27025
:200A3C000A79027149794171DFF8B81402780A70FF2542784A7082788A70C278CA7002791E
:200A5C000A714079DFF8A02448710021DFF89C04057045708570C570057145711180DFF872
:200A7C009004DFF89014466BDFF88C247078087031781170B078DFF884140870716908791F
:200A9C00DFF87C14421E0A70F078DFF878140870B069DFF87414086008B914F03DFFF0697C
:200ABC00DFF86844206008B914F036FF2068DFF8607401688847216851F8042F3846904758
:200ADC00DFF85004DFF850143862DFF850047862306A086008B914F01FFF706ADFF840140B
:200AFC00086008B914F018FFDFF838B4DFF838649BF8040015F060FD306008B900F045B928
:200B1C009BF80500DFF8247415F056FD386008B9306837E19BF80600DFF8144415F04CFD3B
:200B3C00206020B9306815F04FFD38682AE19BF80700DFF8009415F03FFDC9F8000038B9B4
:200B5C00306815F041FD386815F03EFD206819E1DFF8A4130A789BF80000DFF8DCA3921C95
:200B7C00504380B215F028FDCAF8080058B9306815F02AFD386815F027FD206815F024FD54
:200B9C00D9F80000FEE0DC480078002800F00281BBF80210DFF8A4B3484380B215F00CFD95
:200BBC00CBF8040078B9306815F00EFD386815F00BFD206815F008FDD9F8000015F004FD63
:200BDC00DAF80800DEE0CC48007815F0F5FCDC49086080B9306815F0F7FC386815F0F4FCF4
:200BFC00D9F8000015F0F0FCDAF8080015F0ECFCDBF80400C6E0C04800781C21484315F086
:200C1C00DBFCD04A1060B0B9306815F0DDFC386815F0DAFC206815F0D7FCD9F8000015F0C7
:200C3C00D3FCDAF8080015F0CFFCDBF8040015F0CBFCC348A5E0B0480078400115F0BCFC7E
:200C5C00C1490860D8B9306815F0BEFC386815F0BBFC206815F0B8FCD9F8000015F0B4FCFB
:200C7C00DAF8080015F0B0FCDBF8040015F0ACFCB348006815F0A8FCB249086882E09E488A
:200C9C000078000115F098FCB0490860F0B9306815F09AFC386815F097FC206815F094FC94
:200CBC00D9F8000015F090FCDAF8080015F08CFCDBF8040015F088FCA148006815F084FC19
:200CDC00A049086815F080FC9F485AE08A480078000115F071FC9E49086018BB306815F081
:200CFC0073FC386815F070FC206815F06DFCD9F8000015F069FCDAF8080015F065FCDBF814
:200D1C00040015F061FC8E48006815F05DFC8D49086815F059FC8C48006815F055FC8B49AF
:200D3C0008682FE0744800783021484315F044FC884A106070BB306815F046FC386815F0D2
:200D5C0043FC206815F040FCD9F8000015F03CFCDAF8080015F038FCDBF8040015F034FC42
:200D7C007748006815F030FC7649086815F02CFC7548006815F028FC7449086815F024FC03
:200D9C007348006815F020FC002014F0C5FD4FF4804192E0316801200871306805733168BB
:200DBC004D73306885733168CD7330680574002031684D743268D072A0223168487103214F
:200DDC003068C28001720720316848720020326890722821306841820121C17600203168BE
:200DFC004877326882F85E00012031680877326882F85D00396808713868057339684D7369
:200E1C00386885733968CD7338680574002039684D743A68D072396848713A6890724FF47D
:200E3C00207039680022C88008818A7401213A68D17421680D732268557321688D732268FD
:200E5C00D57321680D740021226855742368D9720121226811710021236859712168C88065
:200E7C000881002088722168887405202268D0743948016888472A490A6805461068804713
:200E9C0027490A6852F8043F0020984718481D4BC16818780A88314902430A802846304985
:200EBC000A6890470C212F4800F05EF80F4800F05FF800F061F84FF4005198F80000BDE833
:200EDC00F44F0AF03BBE00BF6E4F0020044F0020604E0020084F0020B63F00502C4E00208D
:200EFC00E81200503C4E00200C4F0020344E0020707F01006D4F00207B4F00206B4F002035
:200F1C00724F00206C4F0020F04E0020F44E00207C4B0020D5650100F84E0020E565010066
:200F3C00FC4E0020D40E0020104F0020C4200020184F0020C020002068200020684E0020A1
:200F5C00004F0020B8200020BC200020884E00208C4E0020904E0020980C0020544F00209D
:200F7C009C0C0020F84D0020DFF800F0E5710110DFF800F01D6E0110DFF800F04D71011001
:200F9C000EB5009015F0DCF8029000200190019803281FD20199880000EBC100104908588A
:200FBC00C0B10199880000EBC1000D4908580099884209D1029814F02EFF0199880000EB0B
:200FDC00C1000749401809E00198401C019001980328DFD3029814F01EFF00200EBDC046FB
:040FFC00A81E00200B
:20100000B41200001810000015AB0110FDB301106DC00110FDAE011099B5011000000000F7
:08102000000000002D0000009B
:20102800B01200003C100000B1C00110A9BF011067C0011069B80110000000000000000035
:041048003000000074
:20104C00B012000060100000BDC00110CDB30110D9BD01106DB3011000000000000000005B
:04106C00310000004F
:20107000000000001C0F002004000000000000000000000020000000E8C9011030000000FF
:2010900028100000240F00200400000000000000000000000C000000D8CA011018000000DA
:2010B0004C1000002C0F002004000000000000000000000024000000F0CA0110180000005E
:2010D00000000000340F00200400000000000000000000001000000018CA01102C0000006A
:2010F00000100000440F0020040000000000000000000000200000006CCA011024000000CE
:20111000FFFFFFFF4C0F00200400000000000000000000002800000090CA0110240000008D
:20113000FFFFFFFF540F00200400000000000000000000001400000008CB0110180000000C
:20115000FFFFFFFF5C0F002004000000000000000000000058000000B4C9011034000000DA
:20117000FFFFFFFF640F00200400000000000000000000001000000020CB011018000000A8
:20119000FFFFFFFF6C0F00200400000000000000000000001C000000B4CA011024000000D5
:2011B000FFFFFFFF740F00200400000000000000000000003800000044CA011028000000FD
:2011D000FFFFFFFF7C0F00200400000000000000000000005400000078C901103C00000072
:0811F00001000000347F010042
:0411F80001000000F2
:0411FC0000000E00E1
:0412000000000F00DB
:0412040032000000B4
:0412080001000000E1
:04120C00D00C0020E2
:0412100000020000D8
:0412140000000000D6
:0412180001C90110F7
:04121C0000000000CE
:0412200000000000CA
:0412240008000000BE
:0412280000002200A0
:04122C00040B00208F
:0412300000000000BA
:0412340000000000B6
:0412380008000000AA
:04123C00180C00206A
:0412400000000000AA
:0412440000000000A6
:04124800080000009A
:04124C00000000009E
:04125000000000009A
:041254000000000096
:041258000000000092
:04125C00010000008D
:041260006C0B0020F3
:041264000600000080
:041268000100000081
:04126C00300A002024
:04127000000000007A
:041274000000000076
:041278000002000070
:04127C00000000006E
:02128000290043
:02128200010069
:02128400250043
:02128600300036
:02128800310033
:02128A002D0035
:02128C0001005F
:01128E00015E
:0812900003000000AC7E010028
:0812980000000000000000004E
:0412A0000000010049
:0412A4000000030043
:0412A80013C401105A
:0412AC000D620100CE
:0412B000B812000070
:0412B400B81200006C
:0412B8000000000032
:0412BC00640E00209C
:0412C000A364010022
:0412C4002000000006
:0412C800647D010040
:0412CC001C7C010085
:0412D00029C101101F
:0412D400035F0100B3
:0412D800AB66010000
:0412DC00A1C7011095
:0412E000A3C701108F
:0412E4000000000006
:0412E8006F7F010013
:0412EC002C7B010056
:0412F000447B01003A
:0412F400147B010066
:0212F8000200F2
:0212FA000900E9
:0212FC000100EF
:0212FE000000EE
:0113000001EB
:04130400E963010098
:041308002547010074
:04130C00C5560100C1
:04131000A14A0100ED
:04131400D54A0100B5
:04131800C1310100DE
:04131C00BD0001000F
:041320009D660100C5
:04132400751C010033
:0413280015C70110D4
:04132C0025C70110C0
:2013300000B5ADF1340DFF208DF82800FF208DF82900FF208DF82A00FF208DF82B00FF20B4
:201350008DF82C0001208DF82D0000208DF82E0000208DF82E009DF82E00C82811DA002095
:201370000DF044F88DF828009DF82800FF2808D19DF82E00401C8DF82E009DF82E00C82835
:20139000EDDB00208DF82E009DF82E00C82811DA02200DF02BF88DF829009DF82900FF282F
:2013B00008D19DF82E00401C8DF82E009DF82E00C828EDDB00208DF82E009DF82E00C82871
:2013D00011DA01200DF012F88DF82A009DF82A00FF2808D19DF82E00401C8DF82E009DF815
:2013F0002E00C828EDDB00208DF82E009DF82E00C82811DA03200CF0F9FF8DF82B009DF82A
:201410002B00FF2808D19DF82E00401C8DF82E009DF82E00C828EDDB00208DF82E009DF8DC
:201430002E00C82811DA04200CF0E0FF8DF82C009DF82C00FF2808D19DF82E00401C8DF87E
:201450002E009DF82E00C828EDDB00208DF82F00684602F099FD15F0DBF9002800F03F8316
:201470000398C2490FF046FFF2D09DF82F0040F00100C04300F09C800398C1490FF06AFF9F
:201490003FD29DF8280000283BDD0398BC490DF06EF913F023F9C0B2012807DD0398B849F0
:2014B0000DF065F913F01AF9C0B200E001209DF82810884202DD9DF8280011E00398B04980
:2014D0000DF055F913F00AF9C0B2012807DD0398AB490DF04CF913F001F9C0B200E00120EB
:2014F0009DF82810091A8DF8281002E0052014F009FA9DF8281000200BF0C0FA0028F5D191
:2015100056E00398C4490FF0F5FE4BD29DF82800FF2847DA03989A4980F000400DF027F97E
:2015300013F0DCF8C0B2012809DD0398944980F000400DF01CF913F0D1F8C1B200E00121C8
:201550009DF82800C0F1FF00814204DD9DF82800C0F1FF0015E00398894980F000400DF0EE
:2015700006F913F0BBF8C0B2012809DD0398844980F000400DF0FBF813F0B0F8C0B200E020
:2015900001209DF8281009188DF8281002E0052014F0B8F99DF8281000200BF06FFA00283A
:2015B000F5D105E09DF82F0040F001008DF82F009DF82F0040F00200C04300F09C80019829
:2015D0006F490FF0C7FE3FD29DF8290000283BDD01986B490DF0CBF813F080F8C0B201284D
:2015F00007DD019866490DF0C2F813F077F8C0B200E001209DF82910884202DD9DF82900DE
:2016100011E001985E490DF0B2F813F067F8C0B2012807DD01985A490DF0A9F813F05EF8CE
:20163000C0B200E001209DF82910091A8DF8291002E0052014F066F99DF8291002200BF023
:201650001DFA0028F5D156E0019873490FF052FE4BD29DF82900FF2847DA0198484980F0DE
:2016700000400DF084F813F039F8C0B2012809DD0198434980F000400DF079F813F02EF880
:20169000C1B200E001219DF82900C0F1FF00814204DD9DF82900C0F1FF0015E00198384936
:2016B00080F000400DF063F813F018F8C0B2012809DD0198324980F000400DF058F813F06A
:2016D0000DF8C0B200E001209DF8291009188DF8291002E0052014F015F99DF829100220CC
:2016F0000BF0CCF90028F5D105E09DF82F0040F002008DF82F009DF82F0040F00400C043A2
:2017100000F0A48002981E490FF024FE45D29DF82A00002841DD029819490DF028F812F04C
:20173000DDFFC0B2012807DD029815490DF01FF812F0D4FFC0B200E001209DF82A10884251
:2017500002DD9DF82A0014E002980D490DF00FF812F0C4FFC0B201280ADD029808490DF0C4
:2017700006F812F0BBFFC0B203E0C0460000000001209DF82A10091A8DF82A1005E0C04687
:2017900000007A44052014F0BDF89DF82A1001200BF074F90028F5D158E002981E490FF01F
:2017B000A9FD4DD29DF82A00FF2849DA0298C24980F000400CF0DBFF12F090FFC0B20128F4
:2017D00009DD0298BC4980F000400CF0D0FF12F085FFC1B200E001219DF82A00C0F1FF008F
:2017F000814204DD9DF82A00C0F1FF0017E00298B14980F000400CF0BAFF12F06FFFC0B2F4
:2018100001280BDD0298AC4980F000400CF0AFFF12F064FFC0B202E000007AC401209DF811
:201830002A1009188DF82A1002E0052014F06AF89DF82A1001200BF021F90028F5D105E039
:201850009DF82F0040F004008DF82F009DF82F0040F00800C04300F09C80009896490FF04B
:2018700079FD3FD29DF82B0000283BDD009892490CF07DFF12F032FFC0B2012807DD00989C
:201890008D490CF074FF12F029FFC0B200E001209DF82B10884202DD9DF82B0011E0009894
:2018B00085490CF064FF12F019FFC0B2012807DD009881490CF05BFF12F010FFC0B200E037
:2018D00001209DF82B10091A8DF82B1002E0052014F018F89DF82B1003200BF0CFF800282C
:2018F000F5D156E000988A490FF004FD4BD29DF82B00FF2847DA00986F4980F000400CF050
:2019100036FF12F0EBFEC0B2012809DD00986A4980F000400CF02BFF12F0E0FEC1B200E0C2
:2019300001219DF82B00C0F1FF00814204DD9DF82B00C0F1FF0015E000985F4980F000400C
:201950000CF015FF12F0CAFEC0B2012809DD0098594980F000400CF00AFF12F0BFFEC0B2FC
:2019700000E001209DF82B1009188DF82B1002E0052013F0C7FF9DF82B1003200BF07EF871
:201990000028F5D105E09DF82F0040F008008DF82F009DF82F0040F01000C04300F09F809E
:2019B000049845490FF0D6FC3FD29DF82C0000283BDD049840490CF0DAFE12F08FFEC0B210
:2019D000012807DD04983C490CF0D1FE12F086FEC0B200E001209DF82C10884202DD9DF8F6
:2019F0002C0011E0049834490CF0C1FE12F076FEC0B2012807DD04982F490CF0B8FE12F029
:201A10006DFEC0B200E001209DF82C10091A8DF82C1002E0052013F075FF9DF82C100420B0
:201A30000BF02CF80028F5D159E0049838490FF061FC4ED29DF82C00FF284ADA04981E49A8
:201A500080F000400CF093FE12F048FEC0B2012809DD0498184980F000400CF088FE12F03F
:201A70003DFEC1B200E001219DF82C00C0F1FF00814204DD9DF82C00C0F1FF0015E004988F
:201A90000D4980F000400CF072FE12F027FEC0B2012809DD0498084980F000400CF067FE1E
:201AB00012F01CFEC0B200E001209DF82C1009188DF82C1005E0C04600007A44052013F003
:201AD00021FF9DF82C1004200AF0D8FF0028F5D105E09DF82F0040F010008DF82F009DF8F0
:201AF0002F001F280DD102E00A2013F00BFF10F05DF80028F8D100208DF82D009DF82D008F
:201B100003E0012013F0FEFEA2E40DB000BDC04600007AC42DE9F04F0C4685B0834614F8BD
:201B3000010BDFF870278DF8000018280BF1FD010BF1E7080BF166090BF20D1A0BF5B076BC
:201B50000BF59C750BF5C67700F29183DFE810F019006F005F0191008F038F03FA00690357
:201B700011012301FE000D0133018F038F037C018F03610155017503D602D60227028F0311
:201B9000740214F8010B8BF88600022221460BF1880015F05FFA014602220BF18A0015F03B
:201BB00059FA014602220BF18C0015F053FA014602220BF18E0015F04DFA04469BF88600D9
:201BD00040008BF886000BF1860102224888400048800BF186008188490081800BF18601D5
:201BF00008890001088121460BF1840015F032FAB9F81E10BBF80800091A89B247F6FF72FC
:201C100091422ADA0BF18601C8888A88401C520050430A89904203D33B208AF80B0039E279
:201C3000012089F81C000020ABF81E001EE0052221460BF1610015F00DFA014602220BF199
:201C5000920015F007FA0BF1860047F6FF728189BBF80800091A89B2914280F218820BF1AE
:201C70008600012181720021ABF81E10012028700CE398F81600C1070AD41A2198F80D00FB
:201C900088F80E10012808BF0D213FD00D21CDE1002089F8000089F806000822012088F89A
:201CB000110021460BF1B00015F0D4F9014602220BF1B80015F0CEF90BF1A8060146082218
:201CD000304615F0C7F904460821304615F0BEF90BF19C0604222146304615F0BBF9042195
:201CF000304615F0B3F90BF1A00015F0ABF90BF1980015F0A3F9DFF8A005018841F080017C
:201D1000018098F80D00012806D10421584605B0BDE8F04F12F03EBB99F81000012804BFB1
:201D300099F811100F290BD1584610F0FFF8042158460EF05FFE0F2089F81A00FD2175E1DC
:201D5000042173E1012088F80F009FE2002089F8000089F8060088F800000B21012088F854
:201D70000D00002088F8010060E1012088F810008CE2002002F10906235C365C3343235425
:201D9000561C365C33400B54401C0828F2DB58460FF02EF970E2002002F10905235C2D5CC5
:201DB0002B432354551C2D5C2B400B54401C0828F2DB022048E299F8060008B93D2167E1C7
:201DD0009AF800000128D3D014F8011B8AF80310022221460BF5897015F03CF901460222AF
:201DF0000BF58A7015F036F901208AF800009AF8020000281BD10C2118E198F81600C106C7
:201E100001D41221D1E0584610F020FD34E221783EE1207830706078707099F810000128B6
:201E30000CD199F811100F2902D0162902D02DE268732BE2387B40F0010016E205B0BDE8BB
:201E5000F04F002013F06EBD98F81600810707D410F0110F08BF0F2000F009821A2252E0DD
:201E70002078617800EB01202882E178A07800EB012068826179207900EB0120A882E179C1
:201E9000A07900EB0120E882207A2876A17A607A00EB01206883217BE07A00EB0120A88352
:201EB000A17B607B00EB0120E883217CE07B00EB01202884A17C607C00EB01206884217D65
:201ED000E07C00EB0120A884A17D607D00EB0120E8840BF5AA700490688B0390287E02907F
:201EF000BBF808000190E88A0090AB8A6A8A298A58460EF02DF868B198F81600410701D40B
:201F10000F2152E01E22584605B0BDE8F04F0F2112F05CBA688A0BF186018880A88AC88099
:201F3000E88A088102208BF8860000204880BBF83400C01DA9F81E008888BBF83210884231
:201F500001BF0BF18600C188BBF83400814206D10BF186000189BBF8360081421DD099F82F
:201F70001000012804BF99F811100F2907D099F8150020B10F2189F81A10FE2156E0FC21D0
:201F900058460EF037FDE88A0090AB8A6A8A298A9BF8060015F04EF878E1102146E098F85F
:201FB000170010F0090F03D116218AF80C1060E16078217800F00700014021702078797B32
:201FD0000140F97211D0481E01420CD0490704D5B87B10B10421F97205E0F97A0220014275
:201FF0001AD14008FBD1F87A08B9B97AF972F87A042803D1584610F0EFFCB083F87A15F05C
:2020100015F83871B28BB97B012311F04BFA0146308B884202D207E0F872E4E7B28BB97BF2
:202030003879012311F03EFA78801721584605B0BDE8F04F0EF0DEBC60782178814207D177
:2020500000F007000840207033D0421E10420FD01E221821584612F0B9F99BF80610002376
:2020700000221E200BF07EFD387B40F04000FCE0F87247F6FF72A078E17800EB012038812D
:202090003989BBF80800091A89B2914206DB28218AF80B1001208AF80A00F7E00120B871ED
:2020B000F87A042803D1584610F096FCB083F87A0BE099F81100162806D1BA7A9BF806104A
:2020D000134600200BF04EFDB87A3871B28BB97B3879012311F0E6F90146308B884205D38C
:2020F000B28BB97B3879012311F0DCF978800121387B40F0400038732970C7E0207861781B
:2021100000EB01207082E178A07800EB0120F0826179207900EB01203082E179A07900EB33
:202130000120B082B18AF089884288BF0846B97A042905D140F691229042B8BF4FF42960F5
:20215000F28BF0839042B87A14BF01240024042803D1584610F040FC04E0B089F18A884223
:2021700088BF0846B28BB083904214BF012100210C433089718A328B884288BF0846904271
:2021900014BF012100210C433083B28BB97B3879012311F087F90146308B884205D3B28B6F
:2021B000B97B3879012311F07DF978807189308A728B814288BF0146718391429BF8063005
:2021D00014BF0120002004438A4234490A6802EB4311728B8041121DC00F0A7610B15846FD
:2021F00012F086FB9DF80000142810D144B1F08B0090738BB28B318B9BF8060014F012FFF5
:20221000584605B0BDE8F04F15210CF057BF1CB1387840F008003870397841F02001397026
:2022300034E020780E280ED00F2809D0122804D014280CD0162812D028E00020287225E0B1
:202250000120287322E0032088F815001EE0387840F00200387040F01000387016E0387BDF
:2022700040F00200387340F0100038730EE08AF80C0058460FF035FF40B905B0BDE8F04FA7
:20229000074800784FF4804109F05EBC05B0BDE8F08F00BFD41F0020524F0020BC200020E8
:2022B0006E4F002000B5ADF1140D02928DF80E10ADF80C0000208DF80F004FE29DF80E004D
:2022D000102805D10299AC4810220BF0C5FE85E218208DF80F0081E29DF80E00102805D11A
:2022F0000299AF4810220BF0B7FE77E218208DF80F0073E29DF80E00042804D10298B049A9
:20231000006808606AE218208DF80F0066E29DF80E00012844D1AD48007801283CD0AC4806
:2023300000788DF810000298A949007808709DF81000B0B1A648007898B9AF4800780228AE
:2023500004D0AD480078052840F04882AB480178502010F0FDFFAA49024610200BF0C4F90A
:202370003CE29DF81000002840F0388298480078002800F03382A0480078012808D09E480C
:202390000078042804D09C480078052840F02682012013F0F9FF21E212208DF80F001DE270
:2023B00018208DF80F0019E29DF80E0001284CD187480078012844D0844800788DF8100000
:2023D00002988249007808709DF81000D0B17F480078B8B988480078032808D08648007831
:2023F000072804D084480078052840F0F78183480178502010F0ACFF8149024610200BF015
:2024100073F9EBE19DF81000002840F0E7816F480078002800F0E2817748007801280CD029
:2024300075480078042808D073480078062804D071480078052840F0D181012013F0A4FF77
:20245000CCE112208DF80F00C8E118208DF80F00C4E19DF80E00022804D10298B84900881A
:202470000880BBE118208DF80F00B7E19DF80E001F2821DCB54800211F220DF0E0FA02990C
:202490009DF80E20B1480BF0E7FD9DF80E00B04908705A480178502010F05AFF0246AC485D
:2024B0000078AC490090A9480123019010200BF01BF98DF80F0091E118208DF80F008DE1EA
:2024D0009DF80E001F2821DCA34800211F220DF0B6FA02999DF80E209F480BF0BDFD9DF87C
:2024F0000E00C049087045480178502010F030FF0246BC48007897490090974800230190D1
:2025100010200BF0F1F88DF80F0067E118208DF80F0063E19DF80E00012808D102980078F4
:20253000042804DC0298B0490078087056E118208DF80F0052E19DF80E00012808D1029887
:202550000078032804DC0298A8490078087045E118208DF80F0041E19DF80E00062806D1B1
:202570000298A34902680A608088888036E118208DF80F0032E1C046222000209DF80E00E0
:20259000012808D102980078072804DC029899490078087022E118208DF80F001EE1C046C8
:2025B000322000209DF80E0001280BD102980078032807DC02989049007808700EE1C04679
:2025D0000820002018208DF80F0007E1B50C0020B40C00209DF80E00012808D10298007877
:2025F000062804DA0298854900780870F6E018208DF80F00F2E0C04604200020FC1F00206E
:202610009945011002980088ADF810009DF80E0002280DD1BDF81000062809DBBDF810009D
:20263000B0F5486F04DCBDF8100075490880D5E018208DF80F00D1E002980088ADF810003A
:202650009DF80E0002280DD1BDF81000062809DBBDF81000B0F5486F04DCBDF81000694970
:202670000880BBE018208DF80F00B7E002980088ADF810009DF80E00022809D1BDF8100081
:20269000B0F5FA7F04DABDF810005F490880A5E018208DF80F00A1E002980088ADF8100090
:2026B0009DF80E0002280DD1BDF810000A2809DBBDF81000B0F5486F04DCBDF81000534922
:2026D00008808BE018208DF80F0087E0029800788DF810009DF80E00012819D19DF81000C2
:2026F000012815D14A4813F093FA68B94349002009F018FF8DF80F009DF80F0000286DD11E
:20271000444813F019FE69E016208DF80F0065E018208DF80F0061E0BDF80C00282811DAA2
:202730009DF80E0002280DD102983B49BDF80C20038810200AF0D8FF8DF80F004EE0C0468B
:20275000B60C002002208DF80F0047E0580C0020B80C002009450110770C0020BDF80C007F
:20277000A0F201301A28D7D801A151F820008746CD220000E922000005230000292700004B
:202790001F230000632400007D240000D12400002525000047250000692500008D250000D4
:2027B000B52500002927000029270000E525000015260000492600007D260000A926000069
:2027D00029270000292700002927000029270000DD26000029270000B92300009DF80F00D6
:2027F00005B000BDB90C00200C2000200D200020920F00200E2000200F2000207C0E0020D1
:202810007E0E0020800E0020820E0020840E00205C1F0020381F0020BD8401102DE9F84F2B
:20283000012012F0B3F801280ED1DFF8F874396800204871386810F057FE05F057F80400B8
:2028500003D1812014F0EAFB68E201206071DFF8D854DFF8D8044178491C41703968A0798F
:2028700081F8A00040200CF073FF2060287901281CBF002013F056F8E8682168DFF8B05417
:2028900000F5B060C860286801680A79032A1CBF002013F047F82868DFF898840168DFF852
:2028B00098B401F10809062299F80000C0F3801084F82E0109F1020104F5947013F0F2FB28
:2028D000042209F10E0104F1240013F0EBFBD8F80000A67900F10C03042209F10E0103EBAB
:2028F000461013F0DFFBD8F80000A37900EB4310032209F11201103013F0D4FB04F12C0600
:2029100099F81500B070022209F1160104F1300013F0C8FB022209F1180104F1320013F060
:20293000C1FB022209F11A0104F1340013F0BAFB30896084022209F11C0104F1360013F0AB
:20295000B1FBB078F18872894000B0704900B08840001201B080F180728189B2638C5B1CB6
:202970004800434392B2934200D231B99BF80000802109F0E9F83B21FEE004F12E012046D2
:2029900012F080FF0520A081204613F06BF9052209F11E0104F1610013F084FB99F82300C7
:2029B0004009307014F036FB60823A68E34F518A401A04F59771888104F1610199F82300E9
:2029D000DFF87C9300F01F00F073204610F076FE29680A68002010711C25A179386869436A
:2029F00041F6210242520022A17969430144001D4A80A1796943425099F80200410609D5B5
:202A1000D049088841F20A4290420CBFCE48CF48C4F89C012046D4F89C1188473968A379F0
:202A300001F10E026B43D054A1793868694308440021C173C648017881B1B08870B9002170
:202A500071730120208160812046D4F89C1188473968A37901F10E026B43D0543868A279E5
:202A700000F10E016A43885C707394F8960108B912F058FFA1793868DFF8D8A26943084492
:202A900094F896114A1E02740023A17938686943084400214174A279396801F112006A43FD
:202AB00001F1140C8352A279D8F8000000EB42136A434CF80230A2796A431144A64A8A61D9
:202AD000DAF814100B78DA074CBF4FF0100C4FF0000C99074CBF202100215A074CBF402200
:202AF00000221B0700F10803A07941EA0C014CBF4FF0800E4FF0000E0A4340014EEA020246
:202B100042F00F021A54D8F80000A17900EB41100B224272D8F80010A07901EB4011042291
:202B30008A728E4A1378D8F80000A179012B00EB411002D10121C17203E0DAF828104A78FD
:202B5000C272D8F80000A17900EB41101F220276D8F80010A07901EB401100224A76A07921
:202B70000AF06AFAA279D8F8001052018850A2795301C85820B90721204612F0E0FDCDE03F
:202B90007748016801EB021014F040FA744AA0791368D8F8001003EB00130A1D40011350C3
:202BB000081DA27952018058F063A07940010958716404219BF8000008F0C6FF644BB28859
:202BD0001978901C11B10AB9F088801C618A94F806B041434FF4C87205FB0BFBB1FBF2F14C
:202BF000491CA061616140F6C41C23683A68CDF800B002F1080ED3F80CB00CFB00B0411A43
:202C10000098A1F5A8614EF8001002F10800A17969434058986002F10C01A07968430C32C4
:202C3000095C01F0EF011154A0793968684301F10C020C31125C02F07F020A54A07939683E
:202C5000684301F10C020C31125C02F0F00242F002020A54A179386869430844417B01F037
:202C7000F00141F0010141733868A27900F108016A438858216808616369D8F80000A17982
:202C900096F802E05B0000F1140249010CFB0E3303F5F6635350A17900EB4110C27C02F046
:202CB000F00242F00402C274D8F80010A079DAF8303001EB4012F0880CFB00F61868301AFC
:202CD000A0F51670D061A27901EB4210C17E01F0F00141F00401C176A17938684D432168DE
:202CF0004019486099F80100810614D504F59771488F1B2804BF888F1B2808D1C88FB0F5B4
:202D1000A47F04BFB4F86E11B1F5A47F03D0142120460DF06FFE134907200870BDE8F14F11
:202D300001F072BF104F0020B44D0020684E0020F44B0020BC2000206E4F0020B8200020BB
:202D5000D41F0020504F0020D11C01008B250100784E0020707F01005C4D0020734F002071
:202D70008C4E00206F4F002000B5ADF1240D029000208DF80C0045E20298049004984078FB
:202D90008DF814009DF8140058BBA648A64902221023009010200AF0A7FCA84803221023F5
:202DB000A149009010200AF09FFC0498A849C01C02680A6080888880A64801210170A64808
:202DD0000178502010F0C4FA0246A4480078A5490090A3480123019010200AF085FC8DF842
:202DF00014009DF8140010B19A480821017001208DF80C0030E2029804900498407800285B
:202E100030D10498C07890B193480178502010F09FFA02469448007892490090A948002314
:202E3000019010200AF060FC049948701AE089480078022816D087480078072812D085489E
:202E50000078062803D1A548007801280AD181480078032806D0A94812F0DAFE10B9012088
:202E700013F092FA04984078002800F0F58179480821017001208DF80C00EDE102980490C8
:202E90000498407800283CD102988078032812D170480078062803D16E480721017033E065
:202EB000A948007818B16B48022101702CE069480321017028E0AC48008858B1A248007848
:202ED00010B98648007880B1A74801888B4810F073F80AE09C480078012803D19A490020A6
:202EF000087002E07D49002008705A480078072803D158480621017006E05648042101709B
:202F100002E054480821017001208DF80C00A3E10298049004984078002842D10498B449FD
:202F3000001D02680A60808888800498B149408908804848062101700498AF49C08908800C
:202F50000498AE49008A08800498AD49408A08800498B649C0780870B5480078012803D01C
:202F7000B348007802280ED1B24910201F220AF0BBFBADF81400BDF814004FF47A71414375
:202F9000AD4810F019F804984089AC490090042001900498049BC2781B1D10200AF0A4FB06
:202FB0000DE004984078312806D167490020087028480421017002E0264808210170012037
:202FD0008DF80C0048E1029804900498AC49828810200AF089FB8648002106220CF02FFD71
:202FF0008549002008808549002008808449002008800498A349807908708F4813F09CF9F8
:20301000A14813F099F901208DF80C0079494FF6FF7008803148007840B10E4803210170A5
:203030001AE1C04622200020E95A010004988079082805D107480521017004E03220002002
:20305000044804210170012013F09EF904E1C0469420002004200020FC1F0020B80C0020A1
:20307000580C002009450110B90C002002980490854813F061F904984078002840F0EC8008
:2030900004985D49C088088004985C490089088004985B4940890880674812F0B9FD00289C
:2030B00040F0DA8079480068002800F0D580774852490068524A036809884F4812880088CD
:2030D0009847C9E0770C002002980490049870498288052310200AF007FBBDE0B50C002056
:2030F0000298049004988088ADF8140050480078052805D100208DF81E0072E0141F0020BA
:2031100001208DF81E004C4813F016F948480078012803D046480078042839D15D480499B3
:203130000088C988884202DD5A48008801E00498C088ADF816005848049900880989884232
:2031500004DD5548008803E0B40C002004980089ADF818005148049900884989884205DD78
:203170004E48008804E0C046B60C002004984089ADF81A004A48049900888989884202DDBF
:203190004748008801E004988089ADF81C0028E027480078032803D025480078022810D1E4
:2031B0003C480088ADF816003B480088ADF818003A480088ADF81A0039480088ADF81C00DD
:2031D0000FE00498C088ADF8160004980089ADF8180004984089ADF81A0004988089ADF801
:2031F0001C003049102005AA0AF07EFA34E0C046980F0020BA0C0020BC0C0020BE0C002040
:20321000C00C002002988078052819DC05283FF47FAE00283FF4B0AD801E3FF4ECAD401EF1
:203230003FF42CAE401E3FF429AE15E0C20C00207C0E0020F5840110381F002089AF000043
:20325000801F3FF4C0AE401E3FF410AF08383FF43BAF801E3FF444AF9DF80C0001280CD106
:203270001148006848B110480068006828B10E48006801680D480078884709B000BDC04644
:203290002D1D0100C30C00205C1F0020CC0C0020C11701107E0E0020800E0020820E00205E
:2032B000840E002005160110C80C0020042000202DE9F843040014D1002012F033FB10E06E
:2032D00020460EF00EFF012808D065E08A0740F1548101F0FD0101700020B07120460EF08B
:2032F00025FE04F16605687D002855D0697CDFF8A494022904F1EC0704F59E7804F5B076D4
:2033100004F5C67035D0042949D005295CD0062900F08A800729D3D0092900F0EC800B290B
:2033300000F0C1800C2900F008810D2900F0D0800E2900F0EA800F2900F02881102900F09D
:203350004281112900F05C81122900F00E81142900F08781162900F05A81172900F0758174
:20337000FC2919D0FD2900F09581FE2900F09B81A2E7297C012909D199F80300002815D0FD
:203390001621204612F0DBF9012006E020460EF0A1F82874E88A28830020BDE8F283297C0E
:2033B000012940F0948199F80200002800F0E580FC21204610F0EEFFA07904F1B80204F151
:2033D000B00113F01FFE8CE7297C01290FD199F8020020B184F89410002038607860B87AA4
:2033F000012868D10621204610F0D4FF79E704F1E7063078012809D1204610F03FFE012842
:20341000CAD10020B87201202874C5E770780028C2D004F1C70204F1A00104F1D70013F089
:20343000EDFD012030705CE7297C012940F0538199F8020000283ED0618CE18320460EF03D
:2034500075FD01202870204610F0F6F80120A871397A787C012900F010000FD148B10020D9
:2034700088F80500D8F8001098F8060049080DF053F9A079002113F0BDFD0EE040B1D8F801
:203490000020C54804F5A1735208214613F0CCF9A0790122002113F0A9FD002038723873DE
:2034B000F872B8721DE7287C012805D1F97A012908BFFC2197D060E020460DF0CFFA012844
:2034D000A3D10020F87284F894000120287408E7297C012940F0038199F80200002809D00B
:2034F000002184F8941001202870204610F0A4F80120A87188E0297C012940F0F48099F81A
:203510000200D0B3618CE183E8E6287C012840F0EE80387C022804F1FD0204D1A1790020AB
:2035300013F060FDDAE6032840F0EA80A1791A2013F058FD00203874D0E6287C012804F2A5
:203550000D1140F0E8800B78012B04F5897240F0E8804878012807D1538800930020138880
:20357000CA78A17913F03AFDB8E6297C012940F0E78099F802000028F6D1298B481E28835A
:2035900080B200287FF408AF2221FAE6287C012840F0DA8098F80910012902D130780F2898
:2035B0001BE098F80800012826D1002188F80810288D000900901A20AA8CEB8CA1795208E6
:2035D00013F008FD8AE6287C012840F0C18098F80910012910D1307810281CBF002012F094
:2035F000A1F9002088F80900288D00090090AA8CEB8CA1797078E2E7287F0028E2D1BCE78D
:20361000297C012940F0A88099F80300F5E7297C012940F0A580017B4A061DD4CA0709D573
:2036300001F0FE0101730023A179707800220AF099FA53E68A0740F1988001F0FD010173CC
:203650000023A17900221A20F1E7297C012940F09980027B510690D5017B01F0BF010173F7
:203670003CE6297C012940F08F8001788A067FF52DAE01F0DF010A0701700AD501F0F70197
:203690000170F08B0090738BB28B318BA07913F0C9FC21E6A97E204610F07CFE15E700209C
:2036B00012F040F978E6A87E0F28F8D1FC21204610F070FEB8F812000090B8F81030B8F858
:2036D0000E20B8F80C10A07913F0B4FC64E620460BF004F85DE620460EF0D6FD59E620464E
:2036F00010F08EF955E620460DF082FC51E620460CF03AFF2874E88A2883012038744BE68E
:20371000288B401E288380B20028F8D1A179222013F068FC38E70120887020460CF0DEFB84
:2037300037E6288B401E288380B20028E7D15088009022201388CA78A17913F04FFC23E795
:2037500020460FF05BF824E620460AF05BFA20E620460AF0A7FA1CE620460DF05BFE18E61F
:203770001621204609F01AFE13E6288B401E288380B20028C3D1A1790023002222200AF04D
:20379000F1F901E71721ECE7142120460BF096FCFFE500BF5C4D002079FE00002DE9F84FD4
:2037B000DFF82844A178FF2904BF002012F0BAF8A07812F0CBFD044604F1680604F5C97518
:2037D0003168086804F1900710B10022E28310E0B17B002904BFB07E00280AD139780029E9
:2037F00004BF2878002804D1217F012904BF608CE0832189E08B4118491C6181204612F060
:2038100061F801281EBFDFF8C8030178012904D120890022401CE2836081B07E01280CD17E
:20383000B28B6189208913F0D1FB30B121896289481C82422AD0B28B1FE0387801280CD14F
:203850007A886189208913F0C1FB30B121896289481C82421AD07A880FE02878012815D1DC
:203870006A886189208913F0B1FB00281FBF2189481C6289824209D06A88824206D0501E6E
:20389000608180B213F09EFB401EE0832878012801BF69882089401C814207D16A792A7110
:2038B000002028701346A1790AF05CF904F59A71087920B120890021401CE183608104F1C8
:2038D0002E07B07E012801BFB08B2189491C884238D1608104F18601204611F0D3FFB08C9D
:2038F0006189608400202077E083E0894118A181B08B218913F066FB8046B988308C728CE2
:2039100001FB0808F08C8A4204BF3989884202BFB18CFB88994207D000090090B38CA179CF
:203930005208002013F056FBB07F3870708CB880B08CF880F08C3881204612F093F902209F
:20395000B07601E0B7F80480E28BDFF88892501C00FB08F140F6C41808FB01F0009023683E
:20397000D3F80CC06044DFF870C2D860DCF800E09A489EF800A003884FEA9A1ABAF1030FBA
:2039900013D199F80FC05FEACC7E48BF00230CD45B1C9BB2012B11BFB4F812C004F59A7CE9
:2039B000BCF806C00CF2DC5C01E0B4F812C00CFB01FC4FF4C87EBCFBFEFCDFF824A20CF110
:2039D000010CC4F814C0038084F820204FF01C0BA379A1610BFB03F3DAF80010226801F11D
:2039F000080001F1080CC058D3681061A0790BFB00FE60691B1A4CF80E3001F10800A37932
:203A10000BFB03F3C058906001F10C02A0790BFB00F00C31125C02F0F00242F002020A5460
:203A3000DAF80000A279811C0BFB02F200208852287908B911F076FFDAF80000A27900F142
:203A5000100128790BFB02F240088854A079DAF800100BFB00F008440021417428790428A6
:203A700014D1A079DAF800100BFB00F001F110022B7A125C103142EA83020A54A179DAF80D
:203A900000000BFB01F1084420214174DAF80000A27900F112010BFB02F200238B52514957
:203AB000A2790968520101F11403D4F814C09B5801F1140E03EB4C034EF80230B27E022A56
:203AD0000AD1A279520101F114033E789B5808FB063301F11406B35099F80F20D30749D5D8
:203AF000A2790BFB02F200F1080300F108069B58A3F5A863B3500830A27923680BFB02F235
:203B100082589A600098121A1A6101F11402A079400101F11403125802F5F6621A50287953
:203B3000042807D1A079400101F11402125802F5B0621A5001F11400A27952018058C4F82A
:203B5000340101F11C03284AB888166BA57908FB00F730686D01381AA0F516705851A3798C
:203B700001EB431021490D78012D0EBF0122916A4A7819E02879A37904280CBF4FF44B6091
:203B90004FF4E66001F114025B01D258101ABA8808FB02F2A2F516729042D2D30821204676
:203BB00011F0CDFD01200FE0C272A179DAF800000F4A0BFB01F10844216848600720107085
:203BD000204610F03BF80020BDE8F28F684E0020784F00205C4D0020084F0020E6200020D3
:203BF000B8200020BC200020707F0100734F00206F4F002000B5ADF1240DC848C84909F073
:203C10006BF9C94812F084FBC64908600020C849009001200190C548322200230DF03AFBFE
:203C3000C44900200860C4491F220623102009F05BFD01208DF812000020ADF80800002042
:203C50008DF813000620ADF80A004FF44870ADF80C000020ADF80E004FF47A70ADF8100086
:203C7000012140F205300DF11202FEF71BFB40F20630022102AAFEF715FBB04A4FF4427063
:203C90001521FEF70FFBAE4A40F207300721FEF709FB4FF4447001210DF11302FEF702FB3F
:203CB00040F2113002210DF10A02FEF7FBFA40F21230022103AAFEF7F5FA40F213300221AA
:203CD0000DF10E02FEF7EEFA4FF44570022104AAFEF7E8FA9B48002214239B490090102069
:203CF00009F002FD3220ADF808009349BDF808300622102009F0F8FC8F49BDF808301020BA
:203D1000072209F0F1FC8C49BDF808301020082209F0EAFC8849BDF808301020092209F077
:203D3000E3FC0020029001208DF80C0001208DF80D0000208DF80E0001208DF80F0002A86B
:203D50004FF48162042381490090102009F0CCFC03A84FF4806201237C490090102009F049
:203D7000C3FC0DF10D0040F20242012377490090102009F0B9FC0DF10E0040F203420123FA
:203D900072490090102009F0AFFC0DF10F0040F2064201236D490090102009F0A5FC6C4984
:203DB00010204FF0FF3209F09FFC6A4910204FF0FF3209F099FC11F0D3F94FF0FF300AF0A9
:203DD00031FA01208DF81C0002208DF81D0003208DF81E0004208DF81F005F49142202A80C
:203DF0000AF03AF90020012107AA06F041FF012001210DF11D0206F03BFF022001210DF18B
:203E10001E0206F035FF032001210DF11F0206F02FFF0420142102AA06F02AFF4F4811F004
:203E300011FD4F494F4A102009F05EFC3B48017850200FF08DFA4C490246102009F054FC68
:203E50003648017850200FF083FA48490246102009F04AFC46491020FB2240F6480309F0D1
:203E700043FC4449102009F03FFC43491020042209F03AFC4149102009F036FC404811F083
:203E900083F9404910200C2209F02EFC02E0642011F038FD0EF060FE0028F8D002E064203E
:203EB00011F030FD0DF0F8FD0028F8D10DF00EFD02E0642011F026FD0DF0DAFC0028F8D18B
:203ED00002E0642011F01EFD0DF05CFD0028F8D102E0642011F016FD0DF09CFC0028F8D109
:203EF00002E0642011F00EFD0DF0A8FD0028F8D102E0642011F006FD0DF072FD0028F8D1E6
:203F100002E0642011F0FEFCFDF70AFA0028F8D1064812F007FA09B000BDC04680200020BA
:203F300084200020882000205C200020F01E00200D630100B00E0020BD840110660D0020E7
:203F5000840F00207B0D0020BDEF0000C15100005D550100F5580100287D0100AC0F0020B6
:203F7000095B01000C0F0020518801103181011021B1001031E90000F55F0100C5AB001013
:203F9000A80F002081B3001010B50446ADF1500DBE4900200870BE48122200210BF04FFDAB
:203FB000462168460BF08EFC002800F065819DF80300912840F063819DF805004008C0F062
:203FD0004E819DF80700C008C0F05981AF49012008701E208DF84D0000208DF84C009DF8ED
:203FF0004C00042814DA9DF84C109DF84D0040181DF800109DF84C00684480F848109DF809
:204010004C00401C8DF84C009DF84C000428EADB1298A049086000208DF84C009DF84C0078
:20403000042815DA9DF84C109DF84D004018001D1DF800109DF84C00684480F848109DF8F6
:204050004C00401C8DF84C009DF84C000428E9DB12989149086000208DF84C009DF84C0048
:20407000042815DA9DF84C109DF84D00401808301DF800109DF84C00684480F848109DF89B
:204090004C00401C8DF84C009DF84C000428E9DB12988249086000208DF84C009DF84C0017
:2040B000042815DA9DF84C109DF84D0040180C301DF800109DF84C00684480F848109DF857
:2040D0004C00401C8DF84C009DF84C000428E9DB12987349086000208DF84C009DF84C00E6
:2040F000042815DA9DF84C109DF84D00401810301DF800109DF84C00684480F848109DF813
:204110004C00401C8DF84C009DF84C000428E9DB12986449086000208DF84C009DF84C00B4
:20413000042815DA9DF84C109DF84D00401814301DF800109DF84C00684480F848109DF8CE
:204150004C00401C8DF84C009DF84C000428E9DB12985549086000208DF84C009DF84C0083
:20417000042815DA9DF84C109DF84D00401818301DF800109DF84C00684480F848109DF88A
:204190004C00401C8DF84C009DF84C000428E9DB12984649086000208DF84C009DF84C0052
:2041B000042815DA9DF84C109DF84D0040181C301DF800109DF84C00684480F848109DF846
:2041D0004C00401C8DF84C009DF84C000428E9DB12983749086000208DF84C009DF84C0021
:2041F000042815DA9DF84C109DF84D00401820301DF800109DF84C00684480F848109DF802
:204210004C00401C8DF84C009DF84C000428E9DB12982849086000208DF84C009DF84C00EF
:20423000042815DA9DF84C109DF84D00401824301DF800109DF84C00684480F848109DF8BD
:204250004C00401C8DF84C009DF84C000428E9DB12981949086012E0642011F053FB0DF0CE
:20427000BFFB0028F8D102E0642011F04BFB0DF06FFC0028F8D102E0052011F043FB0849E6
:204290002046282209F0E8FE14B010BDA40E0020102000208C1E0020841E0020881E00207A
:2042B000801E0020901E0020A01E0020981E00209C1E0020941E0020A41E00202DE9FE43C9
:2042D000BF4C0F460646F80B80F05081B80880F03D81E07ADFF8F492B90F80F0B680607AF1
:2042F000002840F096803809C0F09580A07A20B10020A072052010F0C7FA00254FF00108CA
:204310006570284684F8078008F057FBAD4904F174002A4612F01DFB207901281AD160798E
:20433000C0B9DFF8A482D8F8000000284CD048460068006B804761694346401A000BA06102
:204350001968E2698018B0EBC11F98BFE0613BD9E56101E084F80480DFF87482A8F1150020
:204370000068000A30D340F60900A08694F8410000F0F00040F0010084F84100E58694F8C1
:20439000400000F0F00084F84000A56312F0D9FA08F6FF7211686FF0020321F00201116083
:2043B00004F13401C8F8FB3F8A4AC8F8EB1F11688908FCD3C8F8FB3FD8F8FF1F41F0020136
:2043D000C8F8FF1F12F0FAFD65610FF0B3FC82480560022010F058FA112008F0AFFB307C60
:2043F00010B90E2008F0AAFBE5712572A07818B906F1380012F0B7FA784812F055F9784990
:204410000878F8B10D7004F1D000042112F0B3FA18E0380914D2B80BC0F0C98004F1240059
:2044300012F09DFA061C08D0706830B17568F068B6F91C1000222023A84727F40057B6E0B4
:204450000020607227F00807B1E020B1042010F01BFA0020E072B168088840F602054FF002
:20447000000885420AD0B0F5C15F07D00A8B4FF61F60104040F43470088306E00A8A4FF61C
:204490001F60104040F4347008826069E0B1D9F85400016804208847B0B1D9F80000006B63
:2044B00080476169814226BF401A401E401A000BF060708AF168401840F6C411F06081427D
:2044D0002CBFB0F5FA7FF16094F8410010F00F0F0BD1708CED1D854207D1B56930466FF40F
:2044F000807142464FF00073A8473E4904F17400424612F02EFA607958B10220ADF8000047
:20451000684610F0B7FF84F80580BDF80800A4F8700001206070E078401CE07004F1200053
:2045300084F8068012F01BFA002808BF47F0020702D0192012F00BFA7569414630464FF0F7
:2045500080630A46A84727F0005730E004F12C05284612F004FA06F08DFD284612F0FFF92F
:2045700027F0020708B147F0020720E012F0E9F9014604F1280012F0F2F90646B569A808C3
:2045900010D27EB125EA0500B061084612F016FD706850B12A46F068B6F91C1075680023F6
:2045B000A84702E0084612F009FD27F4804727B104F1D000394612F0DEF9BDE8FE83C046C1
:2045D0000802002081550100A82000208C0100101500044010100440000004607DB10000F6
:2045F000A420002065A90000BB482DE9F84F0025BA4CB849056094F8E200002800F065815C
:20461000012800F02F81B64E02283CD0032840F05C8151F8250CD4F8B8100029A0F5C06063
:20463000C4F8D400B8BF49420028B8BF4042814226DA4FF08057D7F8A4014568B4F8BC0055
:2046500030214FF47F42082300903046A847D7F8A4014568B4F8C00004214FF4F8021223B1
:2046700000903046A847D7F8A401B4F8D070456820214FF440620A2330460097A8470125B3
:2046900084F8D8501CE151F8258C12F025F82F4600B901273946934F38680028FCD0B1460E
:2046B000012609F10409D9F82CA03E6009B112F019F8CAF30720C4F8BC0012F00DF8AA4661
:2046D00000B9B2463B68002BFCD0D9F800B0BAF1000F3E6001D012F005F8CBF38440C4F898
:2046F000C00011F0F9FFAA4600B9B2463B68002BFCD0D9F81C90BAF1000F3E6001D011F00F
:20471000F1FFC9F38120C4F8D000B8F5C061C4F8B81000F09C8094F8D80068B9C4F8D4102D
:20473000D4F8C000C4F8C800D4F8BC70C4F8C470D4F8D030C4F8CC30D4F8D410D4F8BC3085
:20475000002954BF02206FF0010004F1C802176801EB41014018411000EB917107EBA100F6
:204770001060D4F8C810C4F8C43000291CDD1E293CDDD4F8CC0030B93429B4BF15391E2105
:20479000C4F8C81025E02A29BABFD4F8C8000B381E20C4F8C800D4F8C4003F28B4BF401C45
:2047B0003F20C4F8C4001FE0D4F8CC00032812D011F10B0FC6BFD4F8C8000B30301CC4F8EE
:2047D000C800D4F8C4000028C4BF401E051CC4F8C450032508E011F1150FC6BFD4F8C80028
:2047F0001530301CC4F8C800C4F8CC504FF08057D7F8A401B4F8C43030214FF47F42456890
:20481000374800930823A847D7F8A40104214FF400321123456832480096A847B4F8C8609A
:20483000D7F8A40104214FF4F802122345682C480096A847D7F8A40120214FF440620A23F0
:20485000B4F8CC60456826480096A84701E084F8D85040F2FF50404502D8801C40452FD249
:20487000082030E051F8251C1F4F4BF2F5204843060A3868C0F3814001280CD11B48006826
:20489000006880470FF038FA11F032FF3111C010484306EBE03694F8E50030B914480068B4
:2048B00020F07F408019460801E084F8E5501148310C0660012741600F4D8760287808B937
:2048D0000B2000E0052084F8E40004F05DFABDE8F88FC0462D400C402C500C401008002002
:2048F00000A00C4000800C40B43F0050EC010010102009403C600C40967D01002DE9F04FE6
:204910000D46E80789B00BD511F024FE28B100218160AE48006800B1804785F0010052E1AF
:20493000A80710D5002006900021049000230290009005910393019101223C2012F03AFBAF
:2049500085F002003FE11E246807DFF88482A14F40F19B800020079082469F498878FF2858
:2049700004BF002010F0DEFF386890F8A00011F0EDFC06463868C07A96F82EB1022818BF21
:20499000032806F5947906D108F10D0012F00EFB08B908F1070A4946584612F003FB88B3B9
:2049B0003868807A002818BF012804D14146484610F0D8F904E04A46594640460CF0B8F924
:2049D000FF283DD06043834608EB0B0406224946E01D11F067FB18F80B0040F0020BE01DB9
:2049F000079006223868817E01F0010186F82E1104F10109386800F1140106F5947011F0F4
:204A100051FB1DE04946584611F0D7FBC0B14A46594640460CF08CF9FF2811D0444344447F
:204A300004F10D0012F0C2FA40B904F10D0012F0BDFA002804BF607F012801D14BF0020BE5
:204A500006F12C005B4601780691418909090591728C079904920122C088029140080390F3
:204A7000CDF804A0CDF800900020B17912F0A2FAD6F89C0159498842B0790CBF0021012172
:204A90000AF0C8F985F004009DE0280610D500200690002104900023029000900591039366
:204AB000019101223B2012F085FA85F080008AE0E8043CD508F1070108F10D0012F06EFA88
:204AD00038684179012923D1017A012918BF04291ED1C17A022918BF032919D1817E00F173
:204AF000140240460CF024F9FF2811D04443444404F10D0012F05AFA50B9E11D04F10D0079
:204B100012F04CFA38680622E11D143011F0CAFA334934484A6800784FF480510EF024FB1B
:204B300010B18E2012F036FA85F480504BE0A80505D511F0D1FD2C4901200860FEE76905A9
:204B500004D508F080FC85F480603CE0680405D5812012F01FFA85F4804034E0A80431D582
:204B7000224C206810B1002010F0DCFE4FF0FF3020600CF01FFC1E4C216851F8202F684636
:204B900090471C48C16A026B2468009101920021029100F134014A6809781368806A03937A
:204BB0008DF81010ADF812006B46D4F80080124A12491348C0471349086003F041FF85F403
:204BD000005000E0002009B0BDE8F08F204F0020D0130020104F0020684E0020D11C0100C3
:204BF000784E00206E4F0020FC002043044F0020F04E0020C80A0020CC1E0020B40D0020D5
:204C100088490020EC4E00202DE9F04FB64D686885B0019020B905B0BDE8F04F12F0B6B968
:204C30000178DFF8C882B24EDFF8C892DFF8C8A201291CBF0229042946F2A81741F64C5B26
:204C500005D0402918BF802900F09A8043E111F07FFD0028FAD00198007805F0C3FC009094
:204C7000446814B9002010F05DFE9AF80100002860D002F053F811F069FB02900168009810
:204C900001914F680BF0A6FC022827D000990A78012ADBD1994B19680A7A19F8023033703C
:204CB00018B912F06FF95844A0602069C17E01F0EF01C1762069C17E41F08001C1762069F3
:204CD000C17E01F0F00141F00201C1768C48B96841182069C16101210098A0E001980178F3
:204CF000802913D10822874832700178012903D09AF80100012803DD78690121C17213E041
:204D1000D8F828107A690878D0720DE07D49072030700A787869012A02D10123C37203E0BF
:204D3000D8F828104A78C2720298817901988AF80210CBE00098002888D00199009A007835
:204D5000914205D101281CBF002010F0EBFD15E0012840F0C080694801680A7A19F802004F
:204D7000307012F00FF93918A06812F007F918B912F008F95844A0600120A8700098A5E058
:204D90009AF8010000287DD001F0C8FF11F0DEFA04462068029047689AF8020011F0D6FAF2
:204DB000039011F0DBFC10F0070F3DD0A87805F019FC019041680198009102990BF00AFC2B
:204DD000022831D001990A78012A2AD14B4B19680A7A19F80230337028B912F0D3F8834460
:204DF0000098C0F808B000990869C17E01F0EF01C17600980069C17E41F08001C176009879
:204E10000069C17E01F0F00141F00201C176009AB9683B4841181069C16101210198A97087
:204E300054E0002010F07EFD0398A04228D002980178802913D10822324832700178012995
:204E500003D09AF80100012803DD78690121C17213E0D8F828107A690878D0720DE029499E
:204E7000072030700A787869012A02D10123C37203E0D8F828104A78C272A0798AF8020023
:204E9000029823E011F06AFC10F0070F29D0A87805F0A8FB04462078D4F80480012820D1EB
:204EB00016490A68107A19F80010317012F06AF83918D8F8080012F061F820B912F062F8A8
:204ED0005844C8F808000120A870204605B0BDE8F04F07F0BDB805B0BDE8F04F002010F001
:204EF00021BD05B0BDE8F08F68200020707F01006F4F0020289A0110684E0020104F00204D
:204F1000F0D8FFFF734F00202DE9F04F0546A74CA878216AADF11C0D801F00F04181C01EA5
:204F300000F02C81401E78D0401E56D0C01E4AD0401E40F03781207A617A00283FD16078D7
:204F500000283BD0A88812F015F8071C00F02A81A87A40080AD3787940B1E968890A05D22D
:204F7000B91D01AA08F066FC0A2825D0207B022802D1A87A00091FD36078AE887979C0B1F9
:204F9000607CB0B90120607405F10802304604F04FF9002840F00681206A002800F0028111
:204FB0004368002B00F0FE80002130460A469847F8E00521304603E0032100E00521A88826
:204FD00011F0D4FFEEE0002900F0EC804B68002B00F0E8806A780221CEE011F0C3FA0028CB
:204FF00000F0E080276A0FB1386868B9286900280CBFE0690120698911F0B4FF002800F093
:20501000D18068890121DBE7286900903C6869892A7B6B7BE81CA047C4E068784FF0000862
:20503000002840F09880A8794008C0F09480606A002840F0908001A841460E2211F0A5FC8F
:20505000A88811F097FF061C00F0AC80686900285CD0814641460622113010F023FFC24635
:2050700040B348464146062210F01CFFF0B999F8100004F1F20309F1110B059347460690D0
:205090007F1C5846FFB28BF800700FF0D1FF0A280BDA059B069A0101A1EB4001C91888794C
:2050B000824202D1002FEBD100E01FB947464FF0010A6F61BAF1000F09D109F1110101A8B6
:2050D000062210F0EFFF99F810008DF80A00BAF1010F1BD06F69CFB1387C07F11101062296
:2050F0008DF80A0001A810F0DDFF06F10C00B11D062210F0D7FFB01D07F11101062210F0BE
:20511000D1FF387C40F00200707107E07079B11D06228DF80A0001A810F0C4FFA9799DF870
:205130001120C1F3800010438DF81100080905D39DF8110040F008008DF8110001A829469C
:2051500002F0BCFC28B92078022106F0FDFC404629E04FF0150811F031FB206A10B34368FA
:2051700003B3A8886A7801219847B8F1000F19D0206A032142464368A88818E7E878291DFF
:20519000002208F057FB0A280CDA410001EB800005F10C0225300421C0B210F09DFC01E064
:2051B0000CF0BCFD012007B0BDE8F08F400400207CB5A34D144602460026A2F58062192A25
:2051D0001BD8DFE812F032012B0123011A0112010D010501FE00F400E800E000D800C600E6
:2051F000BA001A001A00970081007A0065005C00520047003A0030002500282880F29B8059
:20521000022940F09880218811F0A8FE064615E1012940F012812178284601750121C174B8
:2052300011F09EF80AE1012940F00781002C00F0048128461230024614E0102940F0FD8087
:20525000002C00F0FA8028465C301022214610F029FFF3E0012940F0F080002C00F0ED80C7
:205270002A46921D21781046E5E0262940F0E580002C00F0E280284626226C30E6E70129A0
:2052900040F0DB80002C00F0D8802846401D9DE0602900D144B9012940F0CF80002C00F09B
:2052B000CC8028460D3091E005F192002146602210F0F8FE01206873C0E0012940F0BD80DC
:2052D000207811F047FEB9E0012940F0B6802178022900F3B280284600F10C021170217847
:2052F000022918BF301C02D11021C172012011F02DFEA3E0072940F0A080611C6846062276
:2053100010F03CFD20786946324608F093FA04460A2C10DA11F016FE40B9204605F088FAAB
:20533000502010F0D9FD0CF085FE87E0284601212C30015582E0022680E001297DD12A461D
:205350002178907B0028917378D12078012875D1E9E72846027B01296FD1022A04D021785F
:20537000072901DB102904DD022A66D12178102963D1C17262E001295FD121780A295CDABD
:205390002846093057E0012957D12178022954DA284608304FE000294FD111F0D3FD10B923
:2053B00010F016FFBCE7284601210F3043E0042943D12168234888423FD328461C30016007
:2053D0003CE0012939D12B4603F10A00217832E0012932D1217802292FDA2846C01D2AE004
:2053F00010292AD128464C302FE7012925D12178022922DA2846001D1DE001291DD1217850
:2054100004291ADC2846C01C02462CE7012914D12178022911DA2846821C24E702290CD1D7
:20543000218828461630018008E0012905D12178022902DC0448017000E0182630467CBD6A
:20545000400400203F420F00410400202DE9F04F9E4C20780E46F10BADF11C0DC9036ED1EA
:20547000B0085ED2606AA16A720807D2F00828BF86F0040680F02581002023E1858861B94C
:2054900004F11800924A00904FF6FF710223012011F054FD0146A16221B304A800900027B5
:2054B000019702230293FF220392228B28460DF1120301F025FA58B99DF813009DF8122016
:2054D000A16A12EB002204D0498928460DF07EF8A16A228B08463B464FF6FF7111F02AFDA7
:2054F0000146A162206A00291CBF012186F001061FD168B14368616A5BB188880022012146
:205510009847206A676A4368B888032100229847616A888810F02EFF10F0EAFB86F00106C7
:20553000CFE00020014602F0C9FA30B1012186F00206207806F008FBC3E00221F7E70AF0E0
:2055500097FE5FEA000800F0BA80054628784FF0010AB03812D0401E03D01F3800F0A5808F
:20557000A7E02879002840F0A480B8F80200B8F80610B8F808200DF029F89DE02879401E8D
:2055900041D0083803D0743800F0828087E068781A2879D06888814611F00AF9801E18D026
:2055B000401E7CD1288901280AD16889032807D1E9688A78484604210DF070F9024600E0F3
:2055D0001822206A00286AD04368002B67D0042116E02989688852460129814609D1698976
:2055F000032906D1E9688F781FB910210DF056F90246206A002852D04368002B4FD00521B4
:20561000484698474BE02B7A688805F10807082B814639D111F0CCF8801E12D0401E33D19D
:20563000287B0A2818BF122205D16889042100220DF034F90246206A30B3436823B30421E7
:2056500020E07888102100220DF028F9237D834693B1484611F08EFC70B11E490B784BB9F4
:205670004179831D524601F001010846194610F0F2FB01E05046E074206A28B143681BB1F6
:2056900005215A4678889847688810F073FE06E06A8811F08DF8014610460DF0F5FA29796B
:2056B00005F1080011F042FC03E04046FFF72CFC8246BAF1000F02D0284610F073F986F46E
:2056D0000046B0B207B0BDE8F08FC046400400203A7F01005A4F00202DE9FC41884C894A50
:2056F0002678894F894D8A490D2E30464FF4A0534CD8DFE816F003010E000E000E000E0067
:20571000FB00FB006800FB00A700A700D800D800DF008049176041F204464C887E4FB442EF
:205730001CBFB1F81AE0B6450BD0B1F83280B0451CBF41F20A46B44203D0B64518BFB045C7
:2057500002D12E80176076E0022C744E2C8035D94FF48067E41B1AD0241F012C1DD94FF485
:205770007F77E41B1BD04FF44067E41B0FD0A41E012C0CD9241F0AD0641E012C0DD940F2B9
:20579000F937E41B012C19D9241F08D0AEE0022814BF2B80624E16604DE0624EFBE76248CB
:2057B0000468257A012D05D141F20240488048834886F0E74B804B834B86ECE7002010F0C0
:2057D000B1F8832096E059488178FF291ED01C2041435748176040F204460068841C645A2F
:2057F0002C80A41B012C534D10D94FF47F76A41B15D00A3C012C14D940F6F636A41B032CEC
:2058100084BF641F012C0ED9A41E012C76D940F2FD36A41B07D0641E012C02D905E041F2C3
:205830000143801C4352156005E0002010F07AF8852011F0F3FBBDE8FC413F480078012160
:2058500006F082B94A882A8040F20443D21A55D040F6FC73D21A15D0083A4FD04FF47F73F5
:20587000D21A22D1354C364A2568364800680023CDE9002355F8086F334B0222B0473349F0
:2058900008803BE0092810D131490A68508960B1304908780CF076FB0021002011F042FB88
:2058B000002020702AE048882880002010F03AF885201FE04A882A80022A0DD940F20440AC
:2058D000121A1BD040F6FC70121A05D0083A15D04FF47F70121AE8D1887B801CC0B2B528D2
:2058F000A8BF662088730020488007E0002010F019F88420BDE8F64111F090BBBDE8F381CB
:205910006F4F0020204F002021690100504F00209C1F0020204A00202D28000079AB0000E2
:2059300035CE0000755B0110104F0020684E0020B8200020016700006E4F0020F04E002083
:2059500002000080EC4E0020513A0100424F0020C0200020714F00200EB50091ADF8040041
:2059700000208DF80600A8E07948009900780870EAE000987749102208F06EFBE4E0009889
:205990007549102208F068FBDEE07448009900680860D9E0724900980A68026089888180D7
:2059B000D2E07048009900780870CDE06E48009900780870C8E06D48009900880880C3E04F
:2059D0006B4900980A786B4908F046FBBCE06A4900980A78694908F03FFBB5E068480099D1
:2059F00000780870B0E06748009900780870ABE0654900980A68026089888180A4E06348F9
:205A10000099007808709FE061480099007808709AE0604800990088088095E05E480099BD
:205A30000078088090E05D480099008808808BE05B4800990088088086E05A4800990088B8
:205A5000088081E058480099008808807CE0574900980A6802608988818075E05448009900
:205A70000088088070E053480099008808806BE0514800990088088066E0504800990078F6
:205A9000087061E04E480099007808705CE04D4800990078087057E0BDF80400282808DAA2
:205AB0004949BDF80420102007F01EFE009908804AE002208DF8060046E0BDF80400A0F5BC
:205AD00040701D28E8D802A151F820008746C04679590000835900008F5900009B59000098
:205AF000A5590000B3590000C7590000D1590000DF590000ED590000F7590000015A000019
:205B10000F5A0000195A0000235A0000A95A00002D5A0000375A0000415A00004B5A0000C1
:205B3000555A00005F5A00006D5A0000775A0000815A0000A95A0000955A0000BD59000072
:205B50008B5A00009F5A00009DF806000EBDC046052000202220002032200020082000208A
:205B700094200020B40C0020B50C0020B60C0020B80C0020580C0020B90C0020770C0020AE
:205B90000C2000200D200020920F00200E2000200F200020BA0C00207C0E00207E0E0020C2
:205BB000800E0020820E0020840E0020980F0020BC0C0020BE0C0020C00C0020C20C002052
:205BD00004200020C30C0020F584011010B50B7884074CBF43F0020303F0FD0304064CBFDA
:205BF00043F0800303F07F0304074CBF43F0080303F0F70384064CBF43F0200303F0DF0369
:205C100010F0AA0F0B7004D0107840F00C00107010BD18B9117801F0F301117010BDF8B521
:205C30000F4600263878022814461D4667D1786801784278069801EB022189B2002818BF10
:205C5000B1F5285F01D00B20F2BD4FF42850091A0AD0491E1ED0491E4BD0491E22D0491E0D
:205C700028D0C53941D04AE0F86810F092FE069B079980B2C21A8A42ACBF0846C01A80B213
:205C9000C118162904DA28800246F868C1180DE00D2636E0F8680088022129802070000A51
:205CB00060702EE0062028800622F968204610F0F9F926E0F868B0B1082129800188217094
:205CD0000188090A61704188A1704188090AE170818821718188090A6171C188A171C08814
:205CF000000AE0710DE029800BE04A480178CA0705D401202880F8680178217001E02E8041
:205D100001263046F2BD2DE9F8460E46814630780024022817469A4678D170680178427831
:205D30003C4D01EB022189B24FF42850091A08D0491E30D0491E55D0491E3FD0C63960D032
:205D500064E0F06810F025FE089980B2884206D308460AEB0001162903DB0D2457E007240A
:205D700055E0F36852463946184410F09BF908985044ADF8200000210898F368C0F116029E
:205D9000184410F002FE686800281CBF0268002A3DD0002123E0089888BBBAF1020FDCD1B3
:205DB00039787878F26801EB00211180686800281CBF0268002A2AD0012110E00898F0B97E
:205DD000BAF1060FC9D1F0680622394610F06AF9686800281CBF0268002A18D003214846F6
:205DF000904714E0089850B9BAF1010FB5D13878002813BF0128F1680870802407E00B2480
:205E100005E02878C10758BF032400D501242046BDE8F286DC0E00202DE9F04F8246DAF871
:205E300000600C465FEA0208ADF11C0D14BF00214FF0FF3106F14800834610F006FB0028F2
:205E500018BF0B2040F00681002565708448F460B8F1010F057004D065700220F4600EF014
:205E70004BFE2078012840F2AB80801E012868D9801E012833D9801E012800F2DF8010F0B8
:205E900060FD06904FF0805000F5EE77D0F8DC01A378466A009321782846062908BF012075
:205EB000019001200290A068228AE1686368B0478146069811F082F8B9F1000F40F0C080C6
:205ED000B8F1000F02D010F0A5F802E050460FF023FA002800F0A4803868806A2AE010F027
:205EF00030FD06904FF0805000F5EE77D0F8DC01012306680093A168A27860682478AC4623
:205F1000042C08BF9C466346B0478146069811F055F8B9F1000F40F09380B8F1000F02D0BF
:205F300010F078F802E050460FF0F6F9002877D03868406880474949C1F8B0510D6081467D
:205F50007EE010F0FEFC06904FF0805000F5EE76D0F8DC01E38A87690093E0680190208BC2
:205F70000290A0780390207D04900121059122782846022A08BF081CE1786268A368B8479F
:205F90008146069811F01AF8B9F1000F58D1B8F1000F02D010F03EF802E050460FF0BCF9AB
:205FB00000283DD03068006A80475FEA000947D13068C569A168E28A2369E078A847BEE7B6
:205FD00010F0BFFC06904FF0805000F5EE76D0F8DC01E38AC7680093E0680190208B02900E
:205FF000A0780390207D2946049001200590257805B9014608466268A368E178B8478146AC
:20601000069810F0DBFFB9F1000F19D1B8F1000F02D00FF0FFFF02E050460FF07DF908B920
:20603000142017E03068406980475FEA000907D1306802692169E078904780E74FF0FF3959
:20605000B8F1010F02D002200EF01EFC584610F08AFC484607B0BDE8F08FC0465045024001
:20607000F62000202DE9F04FDFF80CB29BF80000002885B004D0401E032804D9801F0128FE
:2060900040F2F780EFE07D4DDFF8F4812868DFF8F49103687C4E03F10807062207F1080115
:2060B00003A80FF0FFFF0622B91C01A80FF0FAFF3878C0F380118DF800101E24C10900F005
:2060D0000F02032A39D16879C0F38000814233D12969062203A80FF055FC00282CD09DF81F
:2060F000000001A910F05EFF002825D0314601A80EF038FE0746FF2F1ED0D9F80000807AE4
:206110006743002818BF02280BD0012818BF032812D1701CF25DC119404610F0FFFE102843
:206130000AD0F41901AAE11D40460AF092FF062201A9E01D0FF0B6FF90E000F00F0005288F
:2061500040F097806879C0F380008142F4D12969062203A80FF016FC0028EDD09DF800005C
:206170003F7801A910F01EFF7F0940F2024A88B3314601A80EF0F6FD8346BBF1FF0F6DD07F
:20619000D9F80000807A002804FB0BF118BF012800910CD0022818BF03285FD10846711C5D
:2061B000325C0144404610F0B9FE102856D0504610F0B0FE009806EB000A01AA0AF10701DC
:2061D00040460AF046FF062201A90AF107000FF069FF1CE09BF8000002283FD19DF8001041
:2061F00001AA30460AF0A4FD8346BBF1FF0F35D004FB0BF03118487F012805D070BB01F126
:206210000D0010F0D3FE48B3504610F083FE04FB0BF4D9F80010305D88760622701C011946
:20623000D9F8000014300FF03DFF184918488A78510604D5F90758BF41F20A4101D541F26D
:2062500004414180418341861248134A01801348134908600121107805F076FC29680A6832
:206270000020107105E000200FF05CFB862010F0D5FE05B0BDE8F08F6F4F0020F44B002083
:20629000CC470020104F0020D0130020D41F0020204A0020504F00206E4F00202D280000AB
:2062B000204F00202DE9FE4F05467E48002400680094C0090ED37C48007858B97C497B482C
:2062D00051F8112C104040F0817041F8110C20200DF04EF9012D40F0E080DFF80092D9F8E5
:2062F000DC00012840F0D6800220C9F8DC000FF079FA01200DF03CF95FEA000805D0012038
:20631000C9F8DC000FF07EFAC9E010F030FBA34602906848684DC0F800B0A86A01680120A1
:206330008847012804D158460AF0C0F9012000906248634FC0F800B03868112010F0E4F90C
:2063500000B10124102010F0DFF908B144F002040F2010F0D9F908B144F004040B2010F03B
:20637000D3F920B12868574E016B308888470A2010F0CAF920B12868534E016B3088884766
:206390005248012606602868816944F0200088474F48066010F0B2F900F0010101914008B5
:2063B00014D2286A81684B4888478246BAF1040FF7D0BAF1010F04D1286A42684548032140
:2063D00090474549086820F003000860584600F09FFB2B683868986B8047019801280CD09A
:2063F000BAF1010F04D1286A42683A48314690473949086840F003000860304806602868F6
:206410004169204688470B2010F07EF920B128682C4BC16A188888470A2010F075F920B110
:206430002868294BC16A18888847284806600322C9F8DC20264BC3F800B02868416B204678
:2064500088470128F9D1386804200DF091F80446184806603868134800688009FBD30098BE
:20647000012802D130460AF021F910F03BF908200DF07EF807460298C9F8DC6010F046FD90
:206490000AF0BCFC0FF0BEF957EA040018BF4FF0FF3804E06FF0040801E06FF001084046D4
:2064B000BDE8FE8F14100940F8080020FFFFFCFC150009400C400940B801001000022243F4
:2064D0002C200940AA7A0100A67A0100282008608001044300400340242208401008002010
:2064F0002DE9F84F0024774D774EDFF8E0B1DFF8E0A1DFF8E081DFF8E091D9F800104A7A9D
:2065100001231820A34060431A420AEB000709D0087A38F810203A8000201BF80420BA7338
:20653000F87302E040F6010038800020788007F118007860387B00F0EF0040F08000387322
:20655000097A01290ED141F28830B860387B00F0F00040F005003873787B00F0F00040F026
:20657000020019E0002C0CBF0221002100F0F000084338733CB910F005FD00F5C870CAF819
:206590000800022004E00020022CB860F9D10120797B01F0F00108437873641C3E61022C33
:2065B0007D61AADDD9F80000017A01290EBFCAF834A00020CAF834000EF0B6FC30604748A8
:2065D00080690078C1074CBF1021002182074CBF2022002243074CBF4023002300074CBF40
:2065F0008020002011431943014341F00F01317100207071D9F80010887A00F0030070713C
:20661000CA7A920002F00402104370718A7ED20002F0080242F0100210437071087A01286F
:2066300018BF042806D10020B071F071B06001F1140216E0487FB07101F15D025078F0715E
:20665000487F20B10B7FC3EB4313C8181E30B060507828B11278C2EB42128B1803F15F00A4
:206670001F4AF060726101F10C0030611D4BF07E727900F0E00040F08600F0761A48F0618F
:20669000187828B1307900F0FE0042F040023071164B987843064CBF42F0200202F0DF02E9
:2066B000727100202880A870E87028716871E8802881A872E872E8600868C0F804A0BDE8FF
:2066D000F18F00BFB44D0020F44B0020409A0110204A0020109A0110104F0020707F01004C
:2066F000D0470020784E002000204E00D41F00207E488078FF2800D170472DE9F84F0FF023
:2067100025FE054605F217100178012908BF417800F0A28005F17400817B022903D105F14D
:2067300074020020907305F59276F18911B1307B05F00AFA68896E4F288105F58D78B87A46
:20675000FB793A7BF97A7C7BB8F800C000EB030E96448E4474441FFA84FEB8F80440641CB7
:20677000A8F80440F444B8F80240A8F800C00419A8F802404FF01C0C3468FCB1DFF8749110
:2067900095F806A0D9F8009009F10E0B0CFB0AFA09F10E091BF80AA034F81AB0F34424F820
